{
  "contractName": "EPB",
  "abi": [
    {
      "inputs": [],
      "stateMutability": "nonpayable",
      "type": "constructor"
    },
    {
      "inputs": [
        {
          "internalType": "uint256",
          "name": "",
          "type": "uint256"
        }
      ],
      "name": "evidences",
      "outputs": [
        {
          "internalType": "string",
          "name": "id",
          "type": "string"
        },
        {
          "internalType": "uint256",
          "name": "case_no",
          "type": "uint256"
        },
        {
          "internalType": "string",
          "name": "case_name",
          "type": "string"
        },
        {
          "internalType": "string",
          "name": "file_name",
          "type": "string"
        },
        {
          "internalType": "string",
          "name": "file_type",
          "type": "string"
        },
        {
          "internalType": "string",
          "name": "file_hash_ipfs",
          "type": "string"
        }
      ],
      "stateMutability": "view",
      "type": "function",
      "constant": true
    },
    {
      "inputs": [
        {
          "internalType": "string",
          "name": "_id",
          "type": "string"
        },
        {
          "internalType": "uint256",
          "name": "_caseNo",
          "type": "uint256"
        },
        {
          "internalType": "string",
          "name": "_caseName",
          "type": "string"
        },
        {
          "internalType": "string",
          "name": "_fileName",
          "type": "string"
        },
        {
          "internalType": "string",
          "name": "_fileType",
          "type": "string"
        },
        {
          "internalType": "string",
          "name": "_fileHash",
          "type": "string"
        }
      ],
      "name": "insertEvidence",
      "outputs": [],
      "stateMutability": "nonpayable",
      "type": "function"
    },
    {
      "inputs": [
        {
          "internalType": "uint256",
          "name": "_caseNo",
          "type": "uint256"
        }
      ],
      "name": "viewEvidence",
      "outputs": [
        {
          "components": [
            {
              "internalType": "string",
              "name": "id",
              "type": "string"
            },
            {
              "internalType": "uint256",
              "name": "case_no",
              "type": "uint256"
            },
            {
              "internalType": "string",
              "name": "case_name",
              "type": "string"
            },
            {
              "internalType": "string",
              "name": "file_name",
              "type": "string"
            },
            {
              "internalType": "string",
              "name": "file_type",
              "type": "string"
            },
            {
              "internalType": "string",
              "name": "file_hash_ipfs",
              "type": "string"
            }
          ],
          "internalType": "struct EPB.Evidence[]",
          "name": "",
          "type": "tuple[]"
        }
      ],
      "stateMutability": "view",
      "type": "function",
      "constant": true
    }
  ],
  "bytecode": "0x608060405234801561001057600080fd5b50336000806101000a81548173ffffffffffffffffffffffffffffffffffffffff021916908373ffffffffffffffffffffffffffffffffffffffff160217905550611451806100606000396000f3fe608060405234801561001057600080fd5b50600436106100415760003560e01c80632e4546cd146100465780635c0a9a7d1461007b578063bd357ede14610097575b600080fd5b610060600480360381019061005b9190610a85565b6100c7565b60405161007296959493929190610b51565b60405180910390f35b61009560048036038101906100909190610d0a565b6103bb565b005b6100b160048036038101906100ac9190610a85565b610523565b6040516100be9190610fe3565b60405180910390f35b600181815481106100d757600080fd5b90600052602060002090600602016000915090508060000180546100fa90611034565b80601f016020809104026020016040519081016040528092919081815260200182805461012690611034565b80156101735780601f1061014857610100808354040283529160200191610173565b820191906000526020600020905b81548152906001019060200180831161015657829003601f168201915b50505050509080600101549080600201805461018e90611034565b80601f01602080910402602001604051908101604052809291908181526020018280546101ba90611034565b80156102075780601f106101dc57610100808354040283529160200191610207565b820191906000526020600020905b8154815290600101906020018083116101ea57829003601f168201915b50505050509080600301805461021c90611034565b80601f016020809104026020016040519081016040528092919081815260200182805461024890611034565b80156102955780601f1061026a57610100808354040283529160200191610295565b820191906000526020600020905b81548152906001019060200180831161027857829003601f168201915b5050505050908060040180546102aa90611034565b80601f01602080910402602001604051908101604052809291908181526020018280546102d690611034565b80156103235780601f106102f857610100808354040283529160200191610323565b820191906000526020600020905b81548152906001019060200180831161030657829003601f168201915b50505050509080600501805461033890611034565b80601f016020809104026020016040519081016040528092919081815260200182805461036490611034565b80156103b15780601f10610386576101008083540402835291602001916103b1565b820191906000526020600020905b81548152906001019060200180831161039457829003601f168201915b5050505050905086565b60008054906101000a900473ffffffffffffffffffffffffffffffffffffffff1673ffffffffffffffffffffffffffffffffffffffff163373ffffffffffffffffffffffffffffffffffffffff1614610449576040517f08c379a0000000000000000000000000000000000000000000000000000000008152600401610440906110d7565b60405180910390fd5b60016040518060c0016040528088815260200187815260200186815260200185815260200184815260200183815250908060018154018082558091505060019003906000526020600020906006020160009091909190915060008201518160000190816104b691906112a3565b506020820151816001015560408201518160020190816104d691906112a3565b5060608201518160030190816104ec91906112a3565b50608082015181600401908161050291906112a3565b5060a082015181600501908161051891906112a3565b505050505050505050565b606060008054906101000a900473ffffffffffffffffffffffffffffffffffffffff1673ffffffffffffffffffffffffffffffffffffffff163373ffffffffffffffffffffffffffffffffffffffff16146105b3576040517f08c379a00000000000000000000000000000000000000000000000000000000081526004016105aa906110d7565b60405180910390fd5b6000805b6001805490508110156106125783600182815481106105d9576105d8611375565b5b906000526020600020906006020160010154036105ff5781806105fb906113d3565b9250505b808061060a906113d3565b9150506105b7565b5060008167ffffffffffffffff81111561062f5761062e610bdf565b5b60405190808252806020026020018201604052801561066857816020015b610655610a05565b81526020019060019003908161064d5790505b5090506000805b6001805490508110156109f957856001828154811061069157610690611375565b5b906000526020600020906006020160010154036109e657600181815481106106bc576106bb611375565b5b90600052602060002090600602016040518060c00160405290816000820180546106e590611034565b80601f016020809104026020016040519081016040528092919081815260200182805461071190611034565b801561075e5780601f106107335761010080835404028352916020019161075e565b820191906000526020600020905b81548152906001019060200180831161074157829003601f168201915b505050505081526020016001820154815260200160028201805461078190611034565b80601f01602080910402602001604051908101604052809291908181526020018280546107ad90611034565b80156107fa5780601f106107cf576101008083540402835291602001916107fa565b820191906000526020600020905b8154815290600101906020018083116107dd57829003601f168201915b5050505050815260200160038201805461081390611034565b80601f016020809104026020016040519081016040528092919081815260200182805461083f90611034565b801561088c5780601f106108615761010080835404028352916020019161088c565b820191906000526020600020905b81548152906001019060200180831161086f57829003601f168201915b505050505081526020016004820180546108a590611034565b80601f01602080910402602001604051908101604052809291908181526020018280546108d190611034565b801561091e5780601f106108f35761010080835404028352916020019161091e565b820191906000526020600020905b81548152906001019060200180831161090157829003601f168201915b5050505050815260200160058201805461093790611034565b80601f016020809104026020016040519081016040528092919081815260200182805461096390611034565b80156109b05780601f10610985576101008083540402835291602001916109b0565b820191906000526020600020905b81548152906001019060200180831161099357829003601f168201915b5050505050815250508383815181106109cc576109cb611375565b5b602002602001018190525081806109e2906113d3565b9250505b80806109f1906113d3565b91505061066f565b50819350505050919050565b6040518060c001604052806060815260200160008152602001606081526020016060815260200160608152602001606081525090565b6000604051905090565b600080fd5b600080fd5b6000819050919050565b610a6281610a4f565b8114610a6d57600080fd5b50565b600081359050610a7f81610a59565b92915050565b600060208284031215610a9b57610a9a610a45565b5b6000610aa984828501610a70565b91505092915050565b600081519050919050565b600082825260208201905092915050565b60005b83811015610aec578082015181840152602081019050610ad1565b60008484015250505050565b6000601f19601f8301169050919050565b6000610b1482610ab2565b610b1e8185610abd565b9350610b2e818560208601610ace565b610b3781610af8565b840191505092915050565b610b4b81610a4f565b82525050565b600060c0820190508181036000830152610b6b8189610b09565b9050610b7a6020830188610b42565b8181036040830152610b8c8187610b09565b90508181036060830152610ba08186610b09565b90508181036080830152610bb48185610b09565b905081810360a0830152610bc88184610b09565b9050979650505050505050565b600080fd5b600080fd5b7f4e487b7100000000000000000000000000000000000000000000000000000000600052604160045260246000fd5b610c1782610af8565b810181811067ffffffffffffffff82111715610c3657610c35610bdf565b5b80604052505050565b6000610c49610a3b565b9050610c558282610c0e565b919050565b600067ffffffffffffffff821115610c7557610c74610bdf565b5b610c7e82610af8565b9050602081019050919050565b82818337600083830152505050565b6000610cad610ca884610c5a565b610c3f565b905082815260208101848484011115610cc957610cc8610bda565b5b610cd4848285610c8b565b509392505050565b600082601f830112610cf157610cf0610bd5565b5b8135610d01848260208601610c9a565b91505092915050565b60008060008060008060c08789031215610d2757610d26610a45565b5b600087013567ffffffffffffffff811115610d4557610d44610a4a565b5b610d5189828a01610cdc565b9650506020610d6289828a01610a70565b955050604087013567ffffffffffffffff811115610d8357610d82610a4a565b5b610d8f89828a01610cdc565b945050606087013567ffffffffffffffff811115610db057610daf610a4a565b5b610dbc89828a01610cdc565b935050608087013567ffffffffffffffff811115610ddd57610ddc610a4a565b5b610de989828a01610cdc565b92505060a087013567ffffffffffffffff811115610e0a57610e09610a4a565b5b610e1689828a01610cdc565b9150509295509295509295565b600081519050919050565b600082825260208201905092915050565b6000819050602082019050919050565b600082825260208201905092915050565b6000610e6b82610ab2565b610e758185610e4f565b9350610e85818560208601610ace565b610e8e81610af8565b840191505092915050565b610ea281610a4f565b82525050565b600060c0830160008301518482036000860152610ec58282610e60565b9150506020830151610eda6020860182610e99565b5060408301518482036040860152610ef28282610e60565b91505060608301518482036060860152610f0c8282610e60565b91505060808301518482036080860152610f268282610e60565b91505060a083015184820360a0860152610f408282610e60565b9150508091505092915050565b6000610f598383610ea8565b905092915050565b6000602082019050919050565b6000610f7982610e23565b610f838185610e2e565b935083602082028501610f9585610e3f565b8060005b85811015610fd15784840389528151610fb28582610f4d565b9450610fbd83610f61565b925060208a01995050600181019050610f99565b50829750879550505050505092915050565b60006020820190508181036000830152610ffd8184610f6e565b905092915050565b7f4e487b7100000000000000000000000000000000000000000000000000000000600052602260045260246000fd5b6000600282049050600182168061104c57607f821691505b60208210810361105f5761105e611005565b5b50919050565b7f4f6e6c79206f776e65722063616e2063616c6c20746869732066756e6374696f60008201527f6e2e000000000000000000000000000000000000000000000000000000000000602082015250565b60006110c1602283610abd565b91506110cc82611065565b604082019050919050565b600060208201905081810360008301526110f0816110b4565b9050919050565b60008190508160005260206000209050919050565b60006020601f8301049050919050565b600082821b905092915050565b6000600883026111597fffffffffffffffffffffffffffffffffffffffffffffffffffffffffffffffff8261111c565b611163868361111c565b95508019841693508086168417925050509392505050565b6000819050919050565b60006111a061119b61119684610a4f565b61117b565b610a4f565b9050919050565b6000819050919050565b6111ba83611185565b6111ce6111c6826111a7565b848454611129565b825550505050565b600090565b6111e36111d6565b6111ee8184846111b1565b505050565b5b81811015611212576112076000826111db565b6001810190506111f4565b5050565b601f82111561125757611228816110f7565b6112318461110c565b81016020851015611240578190505b61125461124c8561110c565b8301826111f3565b50505b505050565b600082821c905092915050565b600061127a6000198460080261125c565b1980831691505092915050565b60006112938383611269565b9150826002028217905092915050565b6112ac82610ab2565b67ffffffffffffffff8111156112c5576112c4610bdf565b5b6112cf8254611034565b6112da828285611216565b600060209050601f83116001811461130d57600084156112fb578287015190505b6113058582611287565b86555061136d565b601f19841661131b866110f7565b60005b828110156113435784890151825560018201915060208501945060208101905061131e565b86831015611360578489015161135c601f891682611269565b8355505b6001600288020188555050505b505050505050565b7f4e487b7100000000000000000000000000000000000000000000000000000000600052603260045260246000fd5b7f4e487b7100000000000000000000000000000000000000000000000000000000600052601160045260246000fd5b60006113de82610a4f565b91507fffffffffffffffffffffffffffffffffffffffffffffffffffffffffffffffff82036114105761140f6113a4565b5b60018201905091905056fea264697066735822122084b8952142f316b96f0973f76d3360d1cec66904a240fb29bf4a585c716233d864736f6c63430008120033",
  "immutableReferences": {},
  "source": "// SPDX-License-Identifier: MIT\npragma solidity ^0.8.18;\n\ncontract EPB{\n\n    address internal owner;\n\n    constructor(){\n        owner = msg.sender;\n    }\n\n    modifier onlyOwner(){\n        require(msg.sender == owner, \"Only owner can call this function.\");\n        _;\n    }\n\n    struct Evidence{\n        string id;\n        uint case_no;\n        string case_name;\n        string file_name;\n        string file_type;\n        string file_hash_ipfs;\n    }\n\n    Evidence[] public evidences;\n\n    function insertEvidence(string memory _id, uint _caseNo, string memory _caseName, string memory _fileName, string memory _fileType, string memory _fileHash) \n    public\n    onlyOwner{\n        evidences.push(Evidence(_id, _caseNo, _caseName, _fileName, _fileType, _fileHash));\n    }\n\n    function viewEvidence(uint _caseNo) \n    public \n    view \n    onlyOwner\n    returns (EPB.Evidence[] memory) {\n        uint256 count = 0;\n        for (uint256 i = 0; i < evidences.length; i++) {\n            if (evidences[i].case_no == _caseNo) {\n                count++;\n            }\n        }\n        EPB.Evidence[] memory result = new EPB.Evidence[](count);\n        uint256 index = 0;\n        for (uint256 i = 0; i < evidences.length; i++) {\n            if (evidences[i].case_no == _caseNo) {\n                result[index] = evidences[i];\n                index++;\n            }\n        }\n        return result;\n    }\n}",
  "sourcePath": "C:\\Users\\Prathamesh\\Desktop\\Project\\Evidence-Protection\\blockchain\\contracts\\EPB.sol",
  "compiler": {
    "name": "solc",
    "version": "0.8.18+commit.87f61d96.Emscripten.clang"
  },
  "schemaVersion": "3.4.16",
  "updatedAt": "2024-04-18T15:05:24.022Z",
  "networkType": "ethereum",
  "devdoc": {
    "kind": "dev",
    "methods": {},
    "version": 1
  },
  "userdoc": {
    "kind": "user",
    "methods": {},
    "version": 1
  }
}